:020000040800F2
:10000000D022002005010008B34A0008753A000814
:10001000B14A0008C31200086D5200080000000039
:10002000000000000000000000000000D54E0008A5
:10003000FB12000800000000154D0008D94E000812
:100040001F0100081F0100081F0100081F01000810
:100050001F0100081F0100081F0100081F01000800
:100060001F0100081F0100081F0100081F010008F0
:100070001F0100081F0100081F010008C512000829
:100080001F0100081F0100081F0100081F010008D0
:100090001F0100081F0100081F0100081F010008C0
:1000A0001F0100081F0100081F0100081F010008B0
:1000B0001F010008414F00081F0100081F01000830
:1000C0001F0100081F0100081F0100081F01000890
:1000D0001F010008F95100080552000839520008B4
:1000E0001F0100081F0100081F010008DFF810D0E1
:1000F00000F0EAFE00480047A9820008AFF3008044
:10010000D02200200648804706480047FEE7FEE769
:10011000FEE7FEE7FEE7FEE7FEE7FEE7FEE7FEE7B7
:100120003F4F0008ED000008202A04DB203A21FAA6
:1001300002F00021704721FA02F3D040C2F1200200
:10014000914008431946704700487047BC53010866
:1001500010B50446FFF7F8FF0068005D00F00100ED
:1001600010BD00000649074A0868504343F23902AF
:10017000104408604008704701490860704700005B
:10018000780000206D4EC64110B5431A934209D243
:100190008318881803E010F8011D03F8011D521E92
:1001A000F9D210BD40EA01039B0703D009E008C95A
:1001B000121F08C0042AFAD203E011F8013B00F82C
:1001C000013B521EF9D210BDD2B201E000F8012B62
:1001D000491EFBD270470022F6E710B513460A46C7
:1001E00004461946FFF7F0FF204610BD30B505461E
:1001F0002A460B4612F8010B13F8014B08B1A04236
:10020000F8D01CB1002802D06D1CF1E7284630BDA3
:10021000CAB2401E10F8011F8A4202D00029F9D14B
:1002200000207047421C10F8011B0029FBD1801AE6
:100230007047034611F8012B00F8012B002AF9D171
:100240001846704770B50F4D00B92868002412E0B9
:100250000A4602E09E4203D0521C1378002BF9D1CB
:10026000DAB2224305D02BB124B1002100F8011BE2
:1002700004E00446401C0678002EE9D128602046A0
:1002800070BD00007C0000200FB400B58DB010A937
:1002900009900B9000914FF0FF300A9000200C90D5
:1002A00005480690054807906A4609A80F9900F08E
:1002B000F9FC0DB05DF814FBC10C0008DF0C000860
:1002C0002DE9FF5F1D464FF0FF3BD5E90146914602
:1002D0005F464FF00008A9697F1C01988847296A8A
:1002E000824688470028F6D1BAF1FF3F0CD024F4AB
:1002F000C064002E19DD600614D5BAF12B0F09D0A9
:10030000BAF12D0F0ED103E0584604B0BDE8F09FBE
:1003100044F48064A9697F1C01988847761E824650
:10032000002E02DDBAF1300F03D0B9F1000F26D054
:1003300032E0A969761E44F400747F1C0198884756
:100340008246002E05DDBAF1780F06D0BAF1580FBB
:1003500003D0B9F1000F10D01EE0B9F1000F02D0A8
:10036000B9F1100F18D1A969761E24F400747F1C0E
:10037000019888478246102002E0082000E00A2009
:10038000814609E008FB0908A969761E44F4007457
:100390007F1C019888478246002E05DD494650465D
:1003A00000F06CFC0028EDDAE96901988847A005A7
:1003B00002D46FF00100A8E7E00725D1600613D54D
:1003C000600502D5C8F1000000E0404629680A1D1A
:1003D0002A600968220501D5087015E0220701D5B9
:1003E000088011E008600FE02868011D296000689E
:1003F000210502D580F8008006E0210702D5A0F88B
:10040000008001E0C0F8008038467EE72DE9FF5FFC
:10041000D2E901A74FF00008916999461446DDF82A
:1004200038B0464601988847054659EA0B0005D082
:1004300009E0A169761C019888470546216A28468B
:1004400088470028F5D1681C03D05FEACA7005D040
:1004500015E04FF0FF3004B0BDE8F09F2068011DAB
:100460002160D0F800800AE05FEACA7001D108F884
:10047000015BA169761C7F1E019888470546002F05
:100480001ADD681C18D0B9F1000F0DD0E81705EB84
:10049000D060421120F01F0059F822102A1A0120C2
:1004A00090400142E0D107E0BBF1000FDCD1216AAE
:1004B000284688470028D7D0E16901988847BBF1D2
:1004C000000F07D1002E05DD5FEACA7002D10021BE
:1004D00088F80010A068B84203DDBBF1000F03D01C
:1004E00017B16FF00100B6E73046B4E770B50646C5
:1004F00005F0FCFA046805460A220021304600F0A7
:10050000FFFB2C6070BDF0B480EA0102D40F420002
:10051000B2EB410F02D20246084611464A0042D0D1
:10052000C30DDDB2C1F3C752AD1A202D35DAC1F3C8
:10053000160141F4000204B15242C5F1200602FA4C
:1005400006F12A411044B3EBD05F23D0C4B1012D92
:10055000A0EBC35009DCF0BC4FF0004202EAC352EA
:10056000DBB200F5000000F00CBC400000F1807030
:1005700000EBC350A0F1807040EAD170490009E05F
:10058000490841EAC071A0EBC35000F500004008E3
:1005900000EBC350F0BC00F0EBBB6142012202EB68
:1005A0004101001BF6E7F0BC704781F00041AAE76B
:1005B00080F00040A7E780EA010210B502F0004396
:1005C000400022D04A001FD0010E01EB1261C0F39F
:1005D0005600C2F3560240F4000042F40002A0FBB1
:1005E000022000047F39140400D0401C50EA12405D
:1005F00001D44000491EC2B20C0604EBD010401CCE
:100600004008802A02D003E0002010BD20F0010045
:10061000002900DA0020184310BD30B480EA01023E
:1006200002F0004530F0004221F0004013D090B1BC
:10063000C30DD40DC2F31601C0F31600E41A41F441
:10064000000140F400027D34914201D3641C00E0BB
:100650004900002C02DA30BC002070474FF4000043
:100660000023914201D3891A034340084FEA410114
:10067000F7D151B1914202D14FF0004105E002D2D1
:100680004FF0010101E06FF0010103EBC450284479
:1006900030BC00F06DBB2DE9FE4F804681EA0300BF
:1006A000C00F0C46009021F0004123F00045B8EB4C
:1006B0000200A94105D24046214690461C460B4601
:1006C000024623F00040104347D0270DC7F30A002D
:1006D000C3F30A510290401A019040286BDAC3F329
:1006E000130040F4801B0098924620B10023D2EB07
:1006F000030A63EB0B0B01985946C0F140025046C8
:1007000000F09BFA06460D4650465946019A00F005
:10071000A3FA10EB08006141002487EA115284EA31
:10072000E7731A4340D0009A62B3019A012A4FEA54
:10073000075215DC001B61EB02014FF0004202EA98
:100740000752CDE90042001C41F5801132462B468C
:1007500000F054FB03B0BDE8F08F40462146F9E7B6
:10076000001B61EB0201001C41F5801300185B4186
:100770002018A2F5001747EB030140EAD570B6191F
:100780006D4111E06D084FEA360645EAC0754FEA43
:100790000752001B61EB0201001C41F58011490862
:1007A0004FEA30000019514132462B4603B0BDE8F4
:1007B000F04F00F014BB0098012240000023D0EB62
:1007C000020263EBE073009821464FEAE074B8EB55
:1007D000000061EB0401E9E783F000435BE781F08F
:1007E000004158E72DE9FE4F81EA030404F000447C
:1007F00021F0004100944FF0000B23F0004350EA39
:1008000001045ED052EA03045BD0C3F30A54C1F37F
:100810000A552C44A4F2F3340194A0FB0254C1F312
:10082000130141F48011C3F3130343F4801301FB5C
:10083000024400FB034E840A970A44EA815447EAC3
:100840008357A4FB076802958D0A05FB07854FEACD
:10085000932C04FB0C542705029D4FEA065847EAE7
:100860001637B5EB08056EEB070C870E920E47EABC
:10087000811742EA8312A7FB0201B6EB0B0164EB7E
:1008800000042B0D43EA0C335E1844EB1C50DA468F
:100890005146E7FB0201C5F313044FEA0B3343EA69
:1008A00014534FEA0432019C43EA0603A4F10C04FA
:1008B0000294009CCDE900B400F0A0FA03B0BDE8BA
:1008C000F08F00200146F9E72DE9F04D81EA03049D
:1008D00004F0004B21F0004514464FF0000A23F0CD
:1008E000004150EA050220D054EA01021DD0C5F3B0
:1008F0000A570246C5F31303C1F31300C1F30A56A6
:1009000040F4801543F48013A7EB0608101BD6466D
:1009100008F2FD3873EB050002D308F1010801E08D
:1009200092185B41B8F1000F03DA00200146BDE8E0
:10093000F08D00204FF48011064684460EE0171B10
:1009400073EB050705D3121B63EB050306434CEA63
:10095000010C49084FEA300092185B4150EA010748
:10096000EDD152EA030012D082EA040083EA0501C5
:10097000084305D0101BAB4106D20122002306E03C
:1009800000224FF0004302E06FF0010253101AEB17
:1009900006004CEB085110EB0A0041EB0B01BDE8DF
:1009A000F04D00F01CBA70B521F0004303430CD0A9
:1009B000C1F30A550024D5EB040564EB0403D617F4
:1009C000AD1AB34102DB0020014670BD201841EB97
:1009D000025170BDC10F80EAE0700844CA07962337
:1009E000002100F0CEB996230022114600F0C9B9CB
:1009F0000EB5C10F80EAE0700844CA07002140F23A
:100A000033438DE80E000A460B4600F0F7F903B0B9
:100A100000BD0EB540F2334102910021CDE9001135
:100A20000A460B4600F0EAF903B000BD00F00042B0
:100A300020F00040C10DC0F3160040F400007F29F3
:100A400001DA00207047962903DCC1F19601C84005
:100A500001E096398840002AF4D04042704720F0E7
:100A60000040C10DC0F3160040F400007F2901DAF8
:100A700000207047962903DCC1F19601C8407047F9
:100A800096398840704770B5C1F30A5201F00045AD
:100A90000024C1F3130140F2FF3341F480119A4264
:100AA00001DA002070BD40F233439A42A2F2334291
:100AB00003DC5242FFF738FB00E090402C43F1D0BA
:100AC000404270BD00F0004230F000400AD0C10D3D
:100AD00001F56071C0F3160042EA0151C2084007F7
:100AE00011437047002001467047000030B5041ED6
:100AF00071F1000404DB4FF00044404264EB01015B
:100B0000141E73F1000405DB1C464FF000435242F3
:100B100063EB04038B4208BF824230BD30B5041E34
:100B200071F1000404DB4FF00044404264EB01012A
:100B3000141E73F1000405DB1C464FF000435242C3
:100B400063EB0403994208BF904230BD01F00043BB
:100B500030B421F0004150EA010206D00A0DA2F59E
:100B60006072C1F31301002A02DC30BC0020704720
:100B7000440F44EAC104C100E01830BC00EBC2508D
:100B800000F0F6B8002801DBC0F10040002901DBCD
:100B9000C1F1004181427047002801DBC0F10040F3
:100BA000002901DBC1F100418842704730B50B4696
:100BB000014600202022012409E021FA02F59D428D
:100BC00005D303FA02F5491B04FA02F52844151E61
:100BD000A2F10102F1DC30BD2DE9F05F05460020F5
:100BE00092469B4688460646814640241BE028469E
:100BF000414647462246FFF797FA53465A46C01ADF
:100C0000914110D311461846224600F016F82D1ACD
:100C100067EB01084F4622460120002100F00DF845
:100C200017EB00094E41201EA4F10104DFDC484609
:100C300031462A464346BDE8F09F202A04DB203A8D
:100C400000FA02F1002070479140C2F1200320FA1F
:100C500003F3194390407047202A06DBCB17203A54
:100C600041FA02F043EAE07306E041FA02F3D040B1
:100C7000C2F1200291400843194670473A2800D239
:100C8000303820F02002412A01D3A2F137008842F7
:100C900001D34FF0FF3070470268114413780160B0
:100CA00018467047D160044951610449116200211E
:100CB0001161114600F01AB9990C000851010008A1
:100CC000426842B1016811F8013B23B1521EC0E9EC
:100CD0000012184670470121C160881E70474268A3
:100CE0005AB1C368016843B983688B4205D0491E75
:100CF000521CC0E90012002070474FF0FF307047CF
:100D00002DE9F04791460F4680460446002614F828
:100D1000015B2DB1FFF718FA0068405DC007F6D1FE
:100D20002B2D02D02D2D18D0641E4A463946204660
:100D300000F074FA27B13968A14201D1C7F80080E8
:100D400071054FF002040BD54042002803DD04F08A
:100D5000CDFE0460A007BDE8F08746F48066E4E7B6
:100D60000028F8DA04F0C2FE04606FF00040F2E7F9
:100D70000029A8BF7047401C490008BF20F00100AF
:100D8000704710B4B0FA80FC00FA0CF050EA01048D
:100D900004BF10BC704749B1CCF1200421FA04F41F
:100DA00011FA0CF118BF012121430843A3EB0C01F8
:100DB000CB1D4FEA00614FEA102042BF002010BC5B
:100DC000704700EBC35010440029A4BF10BC70470B
:100DD000401C490008BF20F0010010BC704710B54E
:100DE000141E73F1000408DA401C41F1000192184E
:100DF0005B411A4301D120F0010010BD2DE9F04DF7
:100E000092469B4611B1B1FA81F202E0B0FA80F24B
:100E100020329046FFF711FF04460F4640EA0A00D1
:100E200041EA0B0153465A46084313D0114653EA90
:100E3000010019D0C8F140025046FFF775F9054688
:100E40000E46504659464246FFF7F7FE084305D086
:100E5000012004E020463946BDE8F08D002005431E
:100E600046EAE0762C4337430A986305E40AA0EB90
:100E700008000022FD0A44EA47540A3002D5002047
:100E80000146E9E7010510196941DDE90845001946
:100E90006941BDE8F04DA2E7C1F30A52C1F3130165
:100EA00040F2FF3341F480119A4202DA00200146F9
:100EB000704740F233439A42A2F2334202DC52427C
:100EC000FFF732B9FFF7B9BE064C074D06E0E06800
:100ED00040F0010394E8070098471034AC42F6D381
:100EE000FFF708F9E0540108005501082DE9F34F18
:100EF0008BB04FF0000801F10C000C464FF0010BD5
:100F000046460DF1080A0190626901210198904757
:100F1000051E2DD0252D2CD0216A8847C0B16269CD
:100F2000012101989047216A88470028F7D1411E86
:100F300062690198904700E0761CA1690B98884788
:100F4000216A88470028F7D1E1690B988847DBE7D9
:100F5000A1690B9888470746A84201D1761CD3E7C0
:100F6000E1690B9888477F1C02D1B8F1000F6FD060
:100F700047E1002762693D463946019890472A2893
:100F800004D162690121019890470125DFF8889218
:100F90006269012101989047A0F130010A290AD223
:100FA0004F45E5DC07EB870100EB4107303FDFD41D
:100FB00045F01005ECE7E90601D46FF000476C2816
:100FC0000AD04C2814D0682815D06A280DD074286F
:100FD0001CD07A281AD01DE062690121019890473F
:100FE0006C2802D045F0040514E045F002050DE040
:100FF00045F020050AE062690121019890476828C0
:1010000002D045F0080505E045F40065626901215C
:1010100001989047C4E9015765283DD019DC58284C
:101020007AD00CDC452837D004DC252826D041288E
:1010300031D131E046282FD047282CD12CE05B2835
:1010400077D0612828D063287CD0642823D15AE047
:10105000D1E06F2848D008DC66281DD067281BD057
:10106000692821D06E2816D127E0702845D0732832
:1010700068D0752847D078280DD14DE0A1690B982C
:101080008847054625283FF469AFE1690B988847F2
:101090006D1C3FF46AAFB4E023466A466FF001006E
:1010A0000B99AFF300809FE045F040006060A80717
:1010B00023464FF0000236D43EE0E8077FF447AF06
:1010C0002068011D21600068290501D506701BE715
:1010D000290701D5068017E7A90703D5F117C0E94D
:1010E000006111E706600FE745F040006060A80767
:1010F00023464FF0080216D41EE040F60E0125EA02
:101100000100606016E045F040006060A8072346DB
:101110004FF00A0207D40FE045F040006060A807D6
:1011200008D5234610226FF001000B99AFF3008021
:101130005AE007E0234610226FF001000B99FFF7F9
:10114000BFF851E04FF000094F464B46632802D0EC
:101150005B2807D041E02079C00601D40120A060BF
:1011600001273AE062690121019890475E2805D184
:101170004FF001096269494601989047216939B9E0
:1011800000210A46534643F82120491C0829FADB6E
:10119000B0B3216969B9C11700EBD16253110AEBF1
:1011A000830122F01F02821A01200B689040034342
:1011B0000B6062690121019890475D28E8D1B9F17F
:1011C000000F09D00020514651F82020D24341F8A9
:1011D0002020401C0828F7DB02AB224600976FF066
:1011E00001000B99FFF712F900280CDA401C08D116
:1011F000BBF1000F05D04FF0FF300DB0BDE8F08F10
:10120000FFE74046F9E7E90701D108F10108064484
:101210004FF0000B78E60000CCCCCC0C2DE9F05F51
:1012200082460078002715468B460AF10104B9462C
:10123000302801D09DB113E014F8010B0127782864
:1012400003D0582801D045B10AE00DB1102D07D1C7
:101250000027102514F8010B02E0082500E00A25FC
:101260000026B0460EE005FB080005FB06F101274D
:1012700001EB10461FFA80F8B6F5803F00D3B9465F
:1012800014F8010B2946FFF7F9FC0028EBDABBF153
:10129000000F05D00FB1641E00E05446CBF80040AB
:1012A000B9F1000F06D004F021FC02210160C81E34
:1012B000BDE8F09F48EA0640FAE7002800DC40421B
:1012C0007047FEE7014800F07BBF0000700400207B
:1012D00030B590F840500124AC40C56B6C60046898
:1012E00063604368102B036803D099600068C26094
:1012F00030BD9A600068C16030BD70472DE9F04193
:1013000006461F48069F1C46007B154688468007F8
:101310001AD457B915E02888414637F810203046CE
:1013200002F06AFF641EAD1C761C002CF3DCBDE8E5
:10133000F0812A884146304602F05EFF641EAD1CF3
:10134000761C002CF5DCF2E75FB916E0288828B19E
:1013500037F810204146304602F04EFF641EAD1CA7
:10136000761C002CF2DCE2E72A881AB141463046AE
:1013700002F042FF641EAD1C761C002CF4DCD6E7A4
:10138000981C002070472DE9FF5F8346DDE90E457C
:10139000984691468A464FF0FF3601274FF4B470C5
:1013A00004F5B47405F5B47503E0A4F5B474A5F5BB
:1013B000B4758442F9DA002D65DD5A2C11DA002C5F
:1013C00000DA00245A2D01DA284600E05A20CDE93F
:1013D0000040CDE9027643464A465146584603F05E
:1013E000F1FF5A3C5A3D002D4DDD5A2C14DA002CE9
:1013F00000DA00245A2D01DA284600E05A20C4F110
:101400005A01C0F15A008DE8430043464A4651460E
:101410005846039603F0D6FF5A3C5A3D002D32DD64
:101420005A2C12DA002C00DA00245A2D01DA284650
:1014300000E05A200DF1040C00948CE8C1004346F2
:101440004A465146584603F0BDFF5A3C5A3D002DCE
:1014500019DD5A2C14DA002C00DA00245A2D01DA96
:10146000284600E05A20C4F15A01C0F15A008DE824
:10147000830043464A4651465846039703F0A2FF6D
:101480005A3C5A3D97E7BDE8FF9F00002DE9FF4712
:1014900080463F4816461D46027D0F46012A1CD055
:1014A000A8EB0600791B50EA01036ED0A2F10109F6
:1014B00004F056FE00F58060824600F007FE00FB57
:1014C00009F4504600F006FE00FB09F1002C0BDA8F
:1014D000C4F500708012404209E004B03246404634
:1014E000BDE8F04700F056B804F50074A0120029DA
:1014F00004DAC1F5007189124C4202E001F5007175
:101500008C12002804DD411C01EBD171491003E06D
:1015100000EBD0714910401E00EBD0704010002C41
:1015200004DD621C02EBD272521003E004EBD472B1
:101530005210641E04EBD47308EB0104ADF80040B4
:10154000BC18ADF80240A8EB00045B10301AADF8EF
:101550000800E81AADF80A007018ADF80440ADF8BC
:101560000C00FC1AA818ADF80E000023ADF80640D8
:101570001A460421684600F0D1F83946404604F086
:101580000BFA2946304604F007FABDE8FF87000051
:10159000981C00202DE9F05F05468846541BA3EBFC
:1015A0000807994693464FF0000A54EA07002AD0EC
:1015B0002046FFF782FE06463846FFF77EFE86424B
:1015C0000ADA20463C4607462846454680465846A5
:1015D000CB4681464FF0010A2046FFF76EFEA0423F
:1015E00003D064427F425D46C84604EBD4704FEAA4
:1015F0006009002F01DAC9F100091C484FF000060C
:10160000807D90B12BE02846BDE8F05F00F030B857
:1016100007FB069090FBF4F101EB0800BAF1000F14
:1016200007D0A91902F076FC761CA642F0DDBDE8D1
:10163000F09FAA1901461046F4E707FB069090FBBD
:10164000F4F101EB080B304604F0CCF930B9BAF1F3
:10165000000F07D0A919584602F05CFC761CA64280
:10166000EBDDE4E7A8195946F6E70000981C0020D6
:10167000054A127D012A05D0521E02EBD272521089
:1016800000F004B802F046BC981C00202DE9F05F81
:1016900006460F4640F2C32050434FF47A7190FB48
:1016A000F1F000F1010802FB02F002EBD27100EB55
:1016B000610B14463244301B394602F00DFC012503
:1016C00027E005FB05F004FB0401594514DD444502
:1016D00011DD06EB050AA6EB0509AAF1010239198D
:1016E00009F1010002F0F8FBAAF10102391B09F12E
:1016F000010002F0F1FB641E3219301B914679198A
:10170000824602F0E9FB4A46791B504602F0E4FBB0
:101710006D1C4545D5DDBDE8F09F00002DE9FC5F5F
:10172000894640F6FF749A4617460646C4F1000BF8
:1017300000210AE006EB8100B0F90200A04200DAC5
:101740000446584500DD8346491C4945F2DB5D48A7
:10175000006900280DD0B0F90620A2EB0A01594516
:1017600000DA8B46B0F90210A1EB0A00A04200DDBE
:101770000446A2E0544800210D4601607DE0A9F135
:101780000100854201DA6A1C00E0002206EB850CAC
:1017900006EB8203BCF90210B3F90200A14237D173
:1017A000A0420ED136F9250004EB0A01C31936F91F
:1017B00022003844834202DA0246184623E01A46E1
:1017C00021E02946A4460022A9F101080BE009B155
:1017D000491E01E0A9F1010106EB8103B3F90230D2
:1017E000634503D1521C4245F1DB2346A34243D05B
:1017F0001B1B36F92510021B93EA020F06D4CA19E7
:1018000004EB0A01104602F067FB35E0084631E0C0
:10181000A04231D001DBA14203DDA1422CDBA0427A
:101820002ADC814209DC0A46A14225DCA04223DBF6
:10183000BCF90010B3F9003009E00246A0421BDCFD
:101840000846A14218DBB3F90010BCF90030A4EB44
:10185000020C5B1A03FB0CF3002BA0EB020C02DD65
:1018600003EB6C0302E0A3EB6C035B1C801A93FB9D
:10187000F0F0084403F0FCFC6D1C4D45FFF67FAF13
:1018800004EB0A00019000208046054610E00F4955
:10189000B8F1000F31F91510009105D000993844C6
:1018A0007A18019902F018FB009888F001086D1C65
:1018B000054909688D42EADB641C5C457FF75AAF35
:1018C000BDE8FC9F981C002064000020801C0020C4
:1018D0002DE9F04FDFF828B18BB04FF0FF36BBF9A0
:1018E00022200692DBF81830BBF924A09C69A1895C
:1018F000814206D8E289824203D3451AD4F8008097
:1019000013E0D4E9018179B10A8882420CD84D886C
:10191000854209D3801A496880B201EB8000B0F992
:101920000050B0F9026000E03546681C5BD0187DBD
:10193000A17C00FB01F9217CCDE90710BBF92A70DD
:10194000384602F0A1FCC0B205FB09820990A17CD7
:1019500001250DF10C0C02958CE80608DBF8180047
:101960000DF1180CC17D807DCDE900019CE80D00D2
:10197000514602F0BDF9701C17D047F0020002F08A
:1019800083FCA27C06FB0981CDE9041BCDE9025250
:10199000DBF818000DF1180CC17D807DCDE9000148
:1019A0009CE80D00514602F0A3F9DBF818005D46F3
:1019B000417D007D814213D9022F11D087F00400B0
:1019C00002F062FCA869037D427D857D03FB02A1D4
:1019D00002EB0A03DDE9060202FB050202F01AFB34
:1019E000099802F051FCDBF81830BBF92210627C38
:1019F0009B7D02FB0311ABF822100BB0BDE8F08F0A
:101A0000981C0020034881698869897D407C48438F
:101A100070470000981C00200220088070478069F1
:101A200082898A4202D8C2898A4207D2806838B144
:101A300002888A4204D84088884201D30120704736
:101A4000002070472DE9F0432A4D044687B0A8696D
:101A5000B5F92A802146806900F04EF8002846D06A
:101A600041680088201A01EBC0044046A67802F0C5
:101A70000BFC814660680121CDE90405CDE9021621
:101A8000A869C27D817DCDE90012037D2278B5F978
:101A90002410B5F9220002F02BF9A869477D067DD4
:101AA000B74219D9C07D47434643B8F1020F13D05E
:101AB00000F0EAF9804600F0DAF900F075FAB5F9BD
:101AC000220021784218B5F92410CB19314402F0D4
:101AD000A1FA404600F068FA484602F0D5FBAA6930
:101AE000B5F922006178927D01FB0200688407B09D
:101AF000BDE8F083981C002006E002888A4202D8E4
:101B000042888A4202D280680028F6D170470000DD
:101B100070B5094C05462946A0698069FFF7ECFFBE
:101B2000002807D041680088281A11F83000A16900
:101B3000897D484370BD0000981C0020012008806A
:101B4000704710B58069FFF7D7FF002800D001204B
:101B500010BD70B50C46054600F0F0F9C1B2234641
:101B60002846BDE870400022AFF30080F0B50028A1
:101B700007DA1C682D26651C1D6026704042012472
:101B800000E00024091BC9B20AB1491EC9B2134EB4
:101B900056F82140844200D8601E114FD1B10C4646
:101BA000491EC9B2944206D11C683D7804F1010C6B
:101BB000C3F800C0257056F8215090FBF5F4E4B24C
:101BC00004FB15001D68303405F1010CC3F800C09A
:101BD0002C70E3E7196800200870F0BDBC520108C2
:101BE0006800002010B5002802DA2D22404200E0F3
:101BF0002B220B685C1C0C601A70096800220A70AA
:101C000010BD10B50021084600F064F940F6FF72DF
:101C10005042BDE8104013460146AFF300802DE965
:101C2000F04180461C4615460E46042002F02CFB6F
:101C3000074623462A463146404602F0EBF938462D
:101C4000BDE8F04102F020BB10B500F02DF9084AC4
:101C5000B2F92410091A9069437D481E0344B2F971
:101C60002200BDE810404FF47A62FFF7D8BF0000B1
:101C7000981C00207FB51E4614460D46CDF80CD0AA
:101C800003AB00223146FFF771FF22462946684622
:101C900000F0D4F87FBD1FB503ABCDF80CD0FFF733
:101CA00065FF684600F052F81FBD7FB5050001A82A
:101CB0000C46009006D569462846FFF793FF641E40
:101CC0000546E4B2284600F039F9C2B2202003E00C
:101CD000009B03F8010B00931146521CD2B2A142A3
:101CE000F6D369462846FFF734FF01A800F02EF826
:101CF0007FBD70B50D460446FEF798FE00F01EF954
:101D00002A1A04F1FF40521EB0F17C5F00D2521E2D
:101D1000002A00DA002229462046BDE87040D2B2EF
:101D2000002303F0FBBA7FB50C461546CDF80CD066
:101D300003A9FFF757FF641EE1B203AB2A46FFF782
:101D400015FF684600F002F87FBD00002DE9FC4752
:101D5000050055D000F0A0F8374E0746B6F922909E
:101D600000F0A2F8B18C8046A1EB0800B0843CE002
:101D700047F6FF71284600F08FF982460146284653
:101D800000F070F9044696F82C0000F003000128DA
:101D90003CD0022836D00020718C6A46081A708424
:101DA000ADF80000611E0844ADF80400B08CADF839
:101DB0000200791E0844ADF806005146284600F09E
:101DC00039F9BDF80200B0845146284600F01CF9EC
:101DD000054428780A281BD00D2819D0BDF800002A
:101DE00020447084287818B16D1C28780028BFD151
:101DF000B18C01EB0800B084B08D20F00300B085F9
:101E0000BDE8FC8704EBD4704010C5E72046C3E76B
:101E100096F82C0000F0030001280AD0022808D010
:101E2000308C708428780A28DCD1B08C3844B08497
:101E3000D8E7A6F82290F5E7981C0020024B5984B9
:101E40009A84FFF783BF0000981C002010B5FFF7AD
:101E5000F5FFBDE81040FFF7F7BE7CB5DDE90645AC
:101E6000CDE90045FFF78FFA7CBDFFF70FBB10B53A
:101E700002F0F2F8BDE8104002F0FAB801498969B1
:101E800049680847981C002010B502F0EBF8BDE83F
:101E9000104002F0EDB8000002488169487DC97D1C
:101EA00048437047981C00200949002091F82C10E5
:101EB00001F00C020649042A896906D0082A01D0DB
:101EC0000C2A01D1087D40087047087D401E7047EC
:101ED000981C002070B50D4603F078FD0446284696
:101EE00003F07AFD204370BD70B510492E200870B4
:101EF00000F09EF80E4C251D201D256102F06CF9A6
:101F00000C482561A061012020756FF070402063AE
:101F10006063002002F07AF96FF07F4002F098F9D8
:101F20000548E061BDE8704002F0BEB868000020DE
:101F3000981C0020EC3B0108E452010810B5011E7A
:101F40004FF0010001DD0A4600E04A42064B00E086
:101F5000401C53F82040944201D80928F8DB00299E
:101F600000DA401C10BD0000BC520108B0F902208C
:101F7000B1F906309A4213DCB1F90220B0F906300B
:101F80009A420DDCB0F90020B1F904309A4207DC26
:101F9000B1F90010B0F90400814201DC0120704762
:101FA0000020704702F032B902F052B9024A91693A
:101FB00000B1906108467047981C0020024A014613
:101FC000107D117570470000981C0020024A0146E0
:101FD000B2F92A0051857047981C00202DE9F04184
:101FE000084F04460568F869016828468847064690
:101FF000F869416828468847284420603046BDE893
:10200000F0810000981C00202DE9F0410D460646A5
:102010000024064F05E0F8694168304688470644C9
:1020200004446D1EF7D22046BDE8F081981C0020C4
:10203000704700001CB5094B1B681BB16A4603F0D2
:1020400099F91CBD1368009352680192044ABDF8C7
:1020500000305384BDF802309384EFE77000002015
:10206000981C002073B50C46009A00257AB10948E7
:102070008069006948B10368104698477CBD68468E
:10208000FFF7ACFFFFF7FAFE0544641EF7D52846BC
:102090007CBD0000981C002073B50D46009A0024FA
:1020A00082B109488069006950B143681046984779
:1020B0007CBD6846FFF792FF20B10A2802D0641C5D
:1020C000AC42F6DB20467CBD981C002000F5806009
:1020D000AFF3008010B50022C0F30B00B0F5006F25
:1020E00002DD0122A0F50060B0F5806F01DDC0F5D2
:1020F000006083110B4C00F03F00C0F1400134F848
:1021000013004843402906D004EB4303C1F14001CA
:102110005B8803FB010020308009002A00D0404288
:1021200010BD0000F452010810B590F821100024F1
:10213000022903D00421816301243DE001680A687B
:1021400022F00E020A6001680A6822F001020A60A9
:102150001A4A0168914201D1012121E0174A143243
:10216000914201D110211BE0144A2832914201D141
:10217000891515E0114A3C32914201D189140FE0D2
:102180000E4A5032914202D14FF4803108E00B4A9E
:102190006432914202D14FF4801101E04FF080711E
:1021A000064A083A5160012180F82110002180F888
:1021B0002010416B01B18847204610BD0800024045
:1021C0002DE9F05FC16B0B6801680A68046C4FF081
:1021D000040C0CFA04FC4A4DDFF828A14A4E4B4F80
:1021E000DFF82CB1DFF82CE11CEA030F2DD05FEAF9
:1021F000427C2AD50A68920603D40A6822F00402B7
:102200000A600168A94201D1042119E0514501D1B8
:10221000402115E0B14202D14FF4806110E0B94293
:1022200002D14FF480410BE0594502D14FF4802197
:1022300006E0714502D14FF4800101E04FF080616A
:102240002F4A083A5160C16A3BE04FF0020808FA91
:1022500004F818EA030F4FF000094FF0010C35D0D5
:102260005FEA827832D50A68920605D40A6822F0BD
:102270000A020A6080F821C00168A94201D1022146
:1022800019E0514501D1202115E0B14202D14FF4AE
:10229000007110E0B94202D14FF400510BE05945F2
:1022A00002D14FF4003106E0714502D14FF4001124
:1022B00001E04FF00071124A083A516080F8209016
:1022C000816A00291AD0BDE8F05F08470825A540BB
:1022D0001D4213D0120711D50A6822F00E020A60BF
:1022E00090F84010C26B0CFA01F15160C0F838C090
:1022F00080F821C080F82090016BE2E7BDE8F09FF4
:10230000080002401C00024030000240440002402D
:10231000580002406C00024030B528B302C8134A8E
:1023200014230A44B2FBF3F29200C263104A8263A0
:10233000022242770B6843F6F0729343D0E90024FF
:102340002243D0E902452C432243046922434469D5
:102350002243846922431A430A6000214163012217
:1023600042770177084630BD012030BDF8FFFDBF40
:102370000000024070B5044690F8200000250128B6
:102380000CD0012084F8200094F821600020012E58
:1023900006D084F820000225284670BD022070BDBA
:1023A000022684F82160A0632068066826F00106F2
:1023B00006602046FEF78CFFE06A0028206801686E
:1023C00002D041F00E0106E021F004010160206816
:1023D000016841F00A0101602068016841F00101D3
:1023E0000160D9E72DE9F84FDFF8A491002409F145
:1023F000040A0AF1040B23464FF00F080BF1040EF8
:10240000BEE00127A7403A40BA4272D1DFF884C14A
:102410004D68A5EB0C0665452BD00DDC032D34D0A3
:1024200005DC35B3012D19D0022D2FD11BE0112D64
:1024300016D0122D2AD119E0B6F5881F19D006DC66
:10244000B6F5803F15D0B6F5801F1FD111E0B6F567
:10245000001F0ED0B6F5041F18D10AE0CB6815E0B6
:10246000CB681B1D12E0CB6808330FE0CB680C3340
:102470000CE08B682BB1012B4FF0080303D04761B0
:1024800004E0042302E0076100E00023FF2A01D8F2
:10249000064601E000F104064FEA840501D9A5F1E2
:1024A0002005376808FA05FC27EA0C0703FA05F54A
:1024B00047EA050737604D68ED0060D5364DAE69D7
:1024C00046F00106AE61AD6924F0030605F0010592
:1024D0000095324D7719BE68A5072D0F08FA05FC47
:1024E00026EA0C06DFF8B8C0604503D14FF0000CB7
:1024F00017E044E0DFF8ACC0604502D14FF0010CBA
:102500000FE0DFF8A4C0604502D14FF0020C08E0F4
:10251000DFF898C0604502D14FF0030C01E04FF0A6
:10252000040C0CFA05FC4CEA060CC7F808C04D6810
:10253000D9F80060ED034D4601D5164300E09643FF
:102540002E604D68DAF80060AD03554601D516439C
:1025500000E096432E604D68DBF80060ED025D46BA
:1025600001D5164300E096432E604D68DEF800600A
:10257000AD02754601D5164300E096432E60641CFB
:102580000A6832FA04F57FF43CAFBDE8F88F00002A
:102590000004014000001110001002400000014042
:1025A00000080140000C01400010014000140140EF
:1025B0008068084000D0012070470AB1016170476F
:1025C0000904FBE701488068704700001C000020F8
:1025D0000248816802781144816070471C00002025
:1025E000074810B5016841F010010160032000F0B8
:1025F00075F8002000F006F800F024F8002010BD67
:102600000020024070B50D4D04464FF47A712878D1
:10261000B1FBF0F00A490968B1FBF0F000F0C8FD29
:1026200048B9102C07D200222146501E00F036F87F
:1026300000206C6070BD012070BD00001C000020F7
:10264000280000200C4808B5816941F00101816132
:10265000816901F001010091C16941F08051C161BE
:10266000C069064900F080500090486820F0E060A2
:1026700040F00070486008BD0010024000000140BA
:10268000002809DB00F01F02012191404009800071
:1026900000F1E020C0F8001170470000F0B40E4BCC
:1026A0001B68C3F30223C3F10704042C00D90424DC
:1026B0001D1D072D01D2002300E0DB1E012606FAB6
:1026C00004F56D1E0D409D409E40761E164045EA65
:1026D0000601F0BC03F0FAB90CED00E0064A00F088
:1026E000070110684FF6FF03184040EA0120034934
:1026F00008431060704700000CED00E00000FA0590
:102700002DE9F0470D46040067D0DFF81881D8F8AE
:10271000000000F00700A8420CD2D8F8001021F009
:1027200007012943C8F80010D8F8000000F007009E
:10273000A84252D120683C4E810712D5400703D5EC
:10274000706840F4E06070602078000703D570681E
:1027500040F4605070607068A16820F0F000084399
:1027600070602078C00727D06068012810D03168D9
:10277000022810D0890700292FDA716821F003019F
:1027800001437160FFF71EFF074641F288390CE0F4
:1027900031688903EFE78901EDE7FFF713FFC11BFC
:1027A000494502D90320BDE8F0877068616800F0F0
:1027B0000C00B0EB810FF0D1D8F80010404601F0CA
:1027C0000701A9420BD9016821F0070129430160E3
:1027D000006800F00700A84201D00120E3E720785C
:1027E000400705D57068E16820F4E0600843706038
:1027F0002078000706D57068216920F4605040EA0F
:10280000C100706000F038F87168084AC1F3031124
:10281000515CC8400649086006480068FFF7F2FEB0
:102820000020C0E70020024000100240C834010828
:10283000280000202000002004480549006849685D
:10284000044AC1F30221515CC840704728000020AF
:1028500000100240D834010804480549006849685E
:10286000044AC1F3C221515CC840704728000020CF
:1028700000100240D834010812A085B00FC88DE8BE
:102880000F0014A0144B006804905968134801F01D
:102890000C02042A10D0082A0ED1C1F38342C903C6
:1028A0001DF802000AD5596804AAC1F34041515CE1
:1028B0000A4A5043B0FBF1F005B07047084948435D
:1028C000FAE7000002030405060708090A0B0C0DCD
:1028D0000E0F1010010200000010024000127A00DA
:1028E00000093D002DE9F84F04006FD02078BE4D5F
:1028F000C00747D06868C0F38100012807D0686826
:10290000C0F38100022809D16868C00306D5286891
:10291000800337D560680028E7D033E06068B0F501
:10292000803F0BD010B1B0F5A02F11D0286820F453
:1029300080302860286820F4802002E0286840F475
:1029400080302860606888B1FFF73CFE064609E0E9
:10295000286840F480202860F0E7FFF733FE801BF2
:10296000642873D828688003F7D50BE0FFF72AFEA8
:10297000064604E0FFF726FE801B6428F1D828688D
:102980008003F7D42078DFF8648280074FF0010AD3
:102990004FF0000939D5686810F00C0F07D068684F
:1029A000C0F38100022809D16868C00306D42868F2
:1029B000800714D52069012808D110E02069B0B142
:1029C000C8F800A0FFF7FEFD064605E007E1FFF7A7
:1029D000F9FD801B0228C4D828688007F7D528682D
:1029E000616920F0F80040EAC10028600DE0C8F8F5
:1029F0000090FFF7E7FD064604E0FFF7E3FD801BCC
:102A0000022823D828688007F7D4207800072CD51F
:102A10007748A169D9B1C0F800A0FFF7D3FD0646F9
:102A200004E0FFF7CFFD801B02280FD8686A8007FB
:102A3000F7D570484FF4FA510068B0FBF1F0009000
:102A400000BF0098411E0091FAD20EE07CE0C0F871
:102A50000090FFF7B7FD064604E0FFF7B3FD801BCB
:102A6000022871D8686A8007F7D4207840075BD5C0
:102A7000E8690027C00008D4E86940F08050E861A8
:102A8000E869012700F0805000905B480168C905A3
:102A900011D40168834641F480710160FFF792FD13
:102AA000064604E0FFF78EFD801B64284CD8DBF857
:102AB0000000C005F6D5E06801280AD008B1052855
:102AC00013D0286A20F001002862286A20F0040050
:102AD00002E0286A40F001002862E06841F2883B89
:102AE00088B1FFF76FFD064609E0286A40F0040050
:102AF0002862EEE7FFF766FD811B59455BD8286A1F
:102B00008007F7D50BE0FFF75DFD064604E0FFF711
:102B100059FD811B59454ED8286A8007F7D41FB14B
:102B2000E86920F08050E861E069A8B36968C1F302
:102B30008101022946D00228484606D0C8F8600024
:102B4000FFF740FD044639E035E04746C8F860002D
:102B5000FFF738FD064604E0FFF734FD801B02282E
:102B600029D828688001F7D4206AB0F5803F05D1C4
:102B70006868A16820F4003008436860D4E908015F
:102B80000843696821F4741108436860C7F860A0BD
:102B9000FFF718FD044605E023E0FFF713FD001BD7
:102BA000022808D828688001F7D51AE0FFF70AFD47
:102BB000001B022802D90320BDE8F88F2868800195
:102BC000F4D40EE00128F7D06868226A00F480315E
:102BD000914204D1616A00F47010884201D0012052
:102BE000EAE70020E8E7000000100240000042424F
:102BF000800442422800002000700040704770B5F9
:102C0000040009D0606A002540B125616561A562B4
:102C100094F8510040B10CE0012070BD6068B0F53F
:102C2000827FF4D0E561F2E784F85050204600F04E
:102C30003FF8022084F851002068016821F040012B
:102C40000160A088218900F4827001F404410843E6
:102C5000A18901F400610843217C01F002010843CD
:102C6000217D01F001010843218B01F4007108432B
:102C7000217F01F03801084394F8201001F0800111
:102C80000843218D01F40051084321680860A069C0
:102C9000042101EA1040216848602068C16921F4DC
:102CA0000061C1616565012084F85100002070BD9C
:102CB0002DE9F04385B00024064600940194029467
:102CC000039400682B492C4F4FF002084FF0030982
:102CD00088422DD1F86940F48040F861F86900F429
:102CE00080400490B86940F00800B861B86969464E
:102CF00000F0080004904FF42040CDE90008CDF822
:102D00000C901E48FFF76EFB1E4D1D4828601020DA
:102D1000C5E901048020C5E903046C61AC61284663
:102D2000EC61FFF7F9FA08B1FEF72CFBB5646E62AF
:102D300015493068884219D1B86940F48050B861AB
:102D4000B86900F480500490B86940F00400B8619C
:102D5000B869694600F004000490E020CDE900085D
:102D60000120CDE902090948FFF73CFB05B0BDE8A9
:102D7000F08300000038004000100240000C0140C9
:102D8000580002407004002000300140000801405B
:102D90002DE9F84F044690F8500000261D46904655
:102DA000894601280ED04FF0010B84F850B0FFF790
:102DB00009FC074694F851004146B246012804D068
:102DC000022694E00220BDE8F88FB9F1000F74D01C
:102DD000B8F1000F71D0032084F85100C4F854A05A
:102DE000C4F83090A4F83480A4F83680C4F838A031
:102DF000A4F83CA0A4F83EA0C4F844A0C4F840A0A5
:102E0000A068B0F5004F09D12068026822F04002A6
:102E100002602068026842F4804202602068026812
:102E2000520603D4026842F040020260E068B0F546
:102E3000006F606803D028B3012923D03FE008B1B8
:102E400001291BD1206B21680088C86006E020683A
:102E50008168890709D5216B0988C160206B801CB6
:102E60002063E08E401EE08608E0FFF7ABFBC01B4E
:102E7000A84202D3681C01D030E075B3E08E002870
:102E8000E5D11FE0206B21680078087306E0206818
:102E90008168890709D5216B09780173206B401C73
:102EA0002063E08E401EE08609E0FFF78BFBC01B2D
:102EB000A84203D3681C02D010E017E06DB1E08E89
:102EC0000028E4D13A462946204601F097FF08B190
:102ED00020206065A06818B106E0FFE7032606E041
:102EE0002068C16880680090606D00B1012684F898
:102EF00051B084F850A0304665E72DE9F84F0446FC
:102F000090F8500001250A9E1F4692468B464FF0CE
:102F1000000801280ED0012084F85000FFF752FB72
:102F2000814694F85100616801280CD0B1F5827F88
:102F300007D102E00220BDE8F88FA16809B9042892
:102F400001D00220B6E0BBF1000F27D0BAF1000F8C
:102F500024D01FB394F85100042802D0052084F82F
:102F6000510000206065C4F838A0E787A787C4F83F
:102F700030B0E786A786206460642068016849064F
:102F800003D4016841F040010160E068B0F5006FD2
:102F9000606805D0E8B3012F43D079E0012089E0D3
:102FA00008B1012F34D1206B21680088C860206BE4
:102FB000801C2063E08E401EE08629E02068816846
:102FC00089070DD5E18E59B1012D09D1216B0988F1
:102FD000C160206B801C2063E08E401EE0860025CF
:102FE00020688168C9070BD0E18F49B1C068A16B27
:102FF0000880A06B801CA063E08F401EE087012545
:10300000FFF7E0FAA0EB0900B04201D3701C50D1E9
:1030100000E006E0E08E0028D0D1E08F0028CDD17E
:103020003CE0206B216800780873206B401C206313
:10303000E08E401EE0862BE02068816889070DD570
:10304000E18E59B1012D09D1216B09780173206BF3
:10305000401C2063E08E401EE086002520688168C9
:10306000C9070BD0E18F49B1C068A16B0870A06B94
:10307000401CA063E08F401EE0870125FFF7A2FA05
:10308000A0EB0900B04202D3701C01D011E086B160
:10309000E08E0028D0D1E08F0028CDD14A463146BD
:1030A000204601F0ABFE38B120204FF001086065EA
:1030B00008E00320804605E0A06818B92068C168D0
:1030C00080680090012084F85100002084F85000AE
:1030D000404630E72DE9F041044690F850000025C5
:1030E000012809D0012784F8507094F85100002677
:1030F000012804D002254EE00220BDE8F08189B10C
:1031000082B1032084F8510066652163A286E286BD
:10311000A66366642664A687E687A068B0F5004FBC
:1031200002D00BE0012536E02068016821F0400163
:1031300001602068016841F480410160A16C184879
:10314000C862A16C17488862A16C17480863A06C1C
:103150004663E38E2268216B0C32A06CFFF70AF9FC
:1031600038B1606D40F010006065012584F8517041
:1031700011E020680168490603D4016841F040016C
:1031800001602068416841F0200141602068416889
:1031900041F00201416084F850602846ADE700002C
:1031A0008F4D0008994D00086D4D0008704770471D
:1031B00010B5401EB0F1807F01D3012010BD4FF04B
:1031C000E02460610F21601702F080FC0020A06104
:1031D00007202061002010BD7047704770B590F83F
:1031E0003C20012A26D0012580F83C50022280F89C
:1031F0003D2002685368946823F070060B683343DF
:1032000053600D4B02689A4208D0B2F1804F05D04E
:103210000A4B9A4202D00A4B9A4204D1496824F0E0
:1032200080031943916080F83D50002180F83C10E4
:10323000084670BD022070BD002C01400004004013
:103240000008004010B5040003D094F83D0010B110
:1032500007E0012010BD002084F83C00204600F06B
:103260001FF8022084F83D00211D206801F06EFE49
:10327000012084F8460084F83E0084F83F0084F87A
:10328000400084F8410084F8420084F8430084F848
:10329000440084F8450084F83D00002010BD000083
:1032A00008B500680B49884212D10B48C16941F04A
:1032B0000201C161C069002200F0020000900121FA
:1032C0001D20FFF7EBF9BDE808401D20FFF7D8B936
:1032D00008BD0000000400400010024090F83D10BE
:1032E000012901D001207047022180F83D100168BA
:1032F000CA6842F00102CA6000680B49884208D0DF
:10330000B0F1804F05D00949884202D0084988426F
:1033100004D1816801F00701062903D0016841F05A
:103320000101016000207047002C014000040040B2
:103330000008004070B5044690F83C00012817D002
:10334000012584F83C50022084F83D002068826802
:1033500022F0770222F47F4282600868502830D041
:103360000DDC20284DD005DC98B310283BD148E077
:10337000022070BD302844D0402834D139E0602884
:1033800028D0702806D0B0F5805F2CD0B0F5005F53
:1033900029D10AE0CB68D1E90121206801F00CFEB7
:1033A0002068816841F0770109E0CB68D1E901210B
:1033B000206801F001FE2068816841F4804181604D
:1033C00011E0CA684968206801F008FE50212068B1
:1033D00007E016E0CA684968206801F010FE602125
:1033E000206801F0F3FD84F83D50002084F83C0093
:1033F00070BDCA684968206801F0F0FD402120686E
:10340000EFE7226801461046EBE7704770B50446C7
:10341000006801694FF00005C943890715D4C168E8
:10342000C943890711D4E91E016101202077206872
:1034300080698007204602D0FFF7E7FF04E000F034
:1034400098F8204600F096F8257720680169C9436E
:10345000490717D4C168C943490713D46FF0040161
:103460000161022020772068806910F4407F2046A7
:1034700002D0FFF7CAFF04E000F07BF8204600F01E
:1034800079F8257720680169C943090716D4C1680E
:10349000C943090712D46FF00801016104202077A5
:1034A0002068C0698007204602D0FFF7AEFF04E025
:1034B00000F05FF8204600F05DF82577206801698C
:1034C000C943C90617D4C168C943C90613D46FF0EC
:1034D00010010161082020772068C06910F4407F46
:1034E000204602D0FFF791FF04E000F042F82046AA
:1034F00000F040F8257720680169C943C90708D161
:10350000C168C943C90704D1891E0161204600F082
:1035100033F820680169C943090609D4C168C94361
:10352000090605D46FF0800101612046FFF754FEC3
:1035300020680169C943490609D4C168C9434906DD
:1035400005D46FF040010161204600F055F8206875
:103550000169C94389060BD4C168C943890607D4E8
:103560006FF0200101612046BDE87040FFF735BED5
:1035700070BD70477047000010B500681749884259
:103580002AD1174C6088401C6080164805F04CFB1F
:103590001549088808B1401E08801449087808B108
:1035A000401E08701249087808B1401E08706088F3
:1035B000B0F5FA7F10D30022628023780D484FF4D3
:1035C00000612BB122700122BDE81040FEF7F5BF6B
:1035D000012222700022F7E710BD00000004004025
:1035E0001800002090020020060000201600002095
:1035F00004000020000801407047704770B5026861
:1036000004461068D168536910F00F0F52D003F0D0
:10361000010501F490762E435FD0C20705D0CA059C
:1036200003D5E26B42F00102E263420705D5DA07F7
:1036300003D0E26B42F00202E263820705D5DA07AB
:1036400003D0E26B42F00402E263020707D501F007
:1036500020022A4303D0E26B42F00802E263E26BED
:10366000002A33D0800604D5880602D5204601F012
:10367000EEFC20684069E16BC0F38010090700D4BC
:1036800028B3204601F0D5FC2068416949061AD5C7
:10369000416921F040014161606BA0B12D49416356
:1036A000606BFEF741FD002810D0606B416BBDE8F8
:1036B00070400847830610D58B060ED52046BDE81E
:1036C000704001F0C4BC2046FFF797FF70BD204654
:1036D000FFF793FF0020E06370BD03062BD50B06B8
:1036E00029D594F839002128F6D1A068B0F5805F7B
:1036F00001D12069B0B1206A411C216221680078A3
:103700004860E08C401E0004000CE084E4D1206896
:10371000C16821F08001C1602068C16841F04001AA
:10372000C16070BD206A0088C0F308005060206A44
:10373000801C2062E5E74006F3D54806F1D5D16844
:10374000204621F04001D160202184F8391000F09A
:1037500090F970BD2350000870B5040004D094F8AF
:103760003900002510B106E0012070BD84F8385002
:10377000204600F023F8242084F839002068C1682E
:1037800021F40051C160204601F0A8FC20680169C5
:1037900021F4904101612068416921F02A014161D1
:1037A0002068C16841F40051C160E563202084F8BD
:1037B000390084F83A00002070BD0000F0B585B0F3
:1037C000002400940194029403940546016847483C
:1037D000DFF814C102220323454E0715614525D1A8
:1037E000816941F480418161816901F480410491E2
:1037F000816941F0040181618069694600F004003B
:1038000004901002CDE9000203933046FEF7EAFD72
:10381000CDE90074694630460294FEF7E3FD0022CC
:1038200002212520FEF73AFF252053E0DFF8C4C02F
:10383000614526D1C16941F40031C161C16901F41A
:1038400000310491816941F0040181618069694618
:1038500000F0040004900420CDE9000203933046F8
:10386000FEF7C0FD0820CDE9000469463046029409
:10387000FEF7B8FD002211462620FEF70FFF262096
:1038800028E01D4EB14227D1C16941F48021C161B8
:10389000C16901F480210491816941F008018161CD
:1038A0008069164E00F00800CDE90330CDE90072C2
:1038B00069463046FEF796FDF014CDE900046946EE
:1038C00030460294FEF78EFD002211462720FEF7B7
:1038D000E5FE2720FEF7D4FE2868C16841F02001EC
:1038E000C16005B0F0BD000000380140001002408A
:1038F000000801400044004000480040000C014026
:103900002DE9F84F044690F83A00984615460E46C1
:10391000202853D1FEB1F5B194F8380001284DD0DC
:10392000012084F838004FF00009C4F83C902220B0
:1039300084F83A00FEF746FEA5858246E585A06834
:103940004FF48057B84201D1206938B1354600267E
:1039500084F8389027E00120BDE8F88F0025F7E7CC
:103960005346002220212046CDF8008001F012FCB1
:1039700008B10320F0E725B1A068B8421BD038B1E8
:1039800008E020684068C0F3080026F8020B07E052
:10399000206980B12068406800F07F0005F8010BC5
:1039A000E08D401EE085E08D0028D9D1202084F8EC
:1039B0003A000020D0E720684068EFE70220CBE71C
:1039C00070472DE9F843044690F839001F46154624
:1039D0000E4620284BD1C6B1BDB194F8380001285D
:1039E00045D0012084F838004FF00008C4F83C802E
:1039F000212084F83900FEF7E5FDA5848146E584A1
:103A0000A068B0F5805F03D004E00120BDE8F88332
:103A1000206920B13546002684F838800EE0002564
:103A2000FAE78021204601F0B5FBA0B9ADB115F849
:103A3000010B21684860E08C401EE084E08C4B461E
:103A40004FF0000200970028EBD14FF040012046D4
:103A500001F0A0FB30B10320D8E736F8020BC0F329
:103A60000800E6E7202084F839000020CEE7022095
:103A7000CCE77047FEE710B5002002F0B1FC012052
:103A800002F07AFC002002F0B5FC022003F0D0FE28
:103A9000012002F0A5FC022003F0CAFEBDE81040A0
:103AA000002002F09DBC000030B585B0002417480E
:103AB0000094019402940394816941F008018161AA
:103AC0008069134D00F00800049028680122818865
:103AD0000068FEF772FD2868012281898068FEF780
:103AE0006CFD2868818800910121CDE90114032132
:103AF000039100686946FEF775FC2868818900918A
:103B000080686946FEF76EFC05B030BD00100240CB
:103B10003800002010B5002002F062FC012002F005
:103B20002BFC012002F066FC022003F081FE012044
:103B300002F056FC022003F07BFEBDE8104000209E
:103B400002F04EBC70B506460024204602F014FC7C
:103B50000025002002F044FC022003F069FE012051
:103B600002F03EFC6006040E02F0FEFB08B1641C8D
:103B7000E4B2012003F05CFE6D1CEDB2082DE8D329
:103B80001EB1FFF778FF204670BDFFF7C3FFFAE7CD
:103B9000024901EB0010024908607047300B002019
:103BA0003800002070B50546012002F0E5FB00203A
:103BB00002F016FC0024280601D5012000E00020B8
:103BC00002F018FC6806050E022003F031FE012009
:103BD00002F006FC022003F02BFE002002F000FCA5
:103BE000022003F025FE641CE4B2082CE3D370BD70
:103BF00010B5012002F0C0FB012002F0FBFB012008
:103C000002F0EEFB042003F013FE002002F0F2FBB2
:103C1000042003F00DFEBDE81040002002F0E0BBE0
:103C200010B5012002F0A8FB002002F0D9FB002013
:103C300002F0E0FB042003F0FBFD012002F0D0FBCA
:103C4000012002F0D7FBBDE81040042003F0F0BDD6
:103C500010B50024204602F08FFB012002F0CAFBC1
:103C6000012003F0E5FD012002F0BAFB012003F082
:103C7000DFFD07E0641CE4B2FA2C03D9FFF7D0FFA4
:103C8000012010BD02F070FB0028F3D102F0A8FB68
:103C9000002010BD2DE9F04107461C4616460D4692
:103CA0002A2000F055FBBF1CB8B200F047FBB61C41
:103CB000B0B200F043FB2B2000F04AFB6D1CA8B211
:103CC00000F03CFB641CA0B200F038FBBDE8F04102
:103CD0002C2000F03DBB00F001BAC0F3C402C0F3D9
:103CE0008521C0F3C44000EB411000EBC2207047B7
:103CF0002DE9F04F0546764887B09846149C006839
:103D00009146002790B1DDE91263159ACDE902636F
:103D1000CDE90442DDE91023CDE9002304684346E0
:103D20004A462846A04707B0BDE8F08FDDE91002FB
:103D300005EB090301EB080C10435B1EACF1010C11
:103D4000012807D01298C0F10800CDE90110002029
:103D50000490BAE05F4EB6F90620501A002808DD3C
:103D6000A8EB0008B8F1000FDDDD1146139A00FB47
:103D70000244B6F90A00ACEB0000002804DDA8EB11
:103D80000008B8F1000FCEDDB6F90800181A0028B7
:103D900001DDA9EB0009B6F904000022A84233DDD9
:103DA000421B1298A9EB020904281FD004DC012849
:103DB0000CD0022828D111E0464BB3F904305B1B2C
:103DC0002B4408281AD010281ED119E022F0070031
:103DD00004EBE204054402F0070215E022F00300C0
:103DE00004EBA204054402F003020DE022F00100FE
:103DF00004EB6204054402F0010205E0144401E012
:103E000004EB42041D460022B9F1000F8BDD15982A
:103E1000139BCDE90320CDE901341298009043466D
:103E20004A46284600F05CF97DE71199019808445C
:103E300006902849401E0090B1F9062082423CDCE1
:103E40000846B0F90A100198814236DB0026AA46DE
:103E5000B34603942FE026B90398082610F8017B97
:103E60000390029937FA01F0129907FA01F7FFB2AD
:103E7000A6EB010603D11749097B890717D4154919
:103E800049880591159921B131F8101011484180E8
:103E900001E010494880109950460AEB0102DDE923
:103EA0000031521E00F0B6F80A4905984880109972
:103EB0000BF1010B8A44CB45CDDB0498401C0490E8
:103EC000069801901398044404984045ADDB2AE716
:103ED00070000020981C002030B40D4CB4F906305E
:103EE0008B4212DCB4F90A308B420EDBB4F9043099
:103EF000834200DD1846B4F90830934200DA1A46CE
:103F0000824202DB30BC00F03BB930BC704700009D
:103F1000981C00200C4AB2F906308B4213DCB2F92F
:103F20000A308B420FDBB2F9043083420BDCB2F96A
:103F30000830834207DB137BDB0701D000F061B957
:103F4000528800F059B97047981C002010B51446EB
:103F50000B460246FFF79EFE2046BDE8104000F0EB
:103F6000EDB900002DE9F8435D1A089CADF800405A
:103F7000141A6C435B1E521EA6B29BB292B2FFF79C
:103F800089FE4FF48078DFF878900022474641465A
:103F90004846FEF712FB1B4D286840F4006028607D
:103FA0001A4C19481021C4E900010115C4E9047133
:103FB0000021E160A160016821F00101016020465B
:103FC000FEF7AAF9124F32466946BC64384667626A
:103FD000FFF780F8B86C006841680029FCD1012225
:103FE00041464846FEF7E9FA2868C0432860286839
:103FF00040F4006028602868C0432860BDE8F8836A
:1040000000080140003800405800024070040020C1
:10401000C003002030B40F4DB5F90440844200DDE8
:104020002046B5F90840944200DA224682420EDB6F
:10403000B5F906408C4200DD2146B5F90A409C42A4
:1040400000DA23468B4202DB30BC00F0B7B830BC4C
:1040500070470000981C002001480088704700004D
:10406000981C00200148408870470000981C0020E0
:1040700000F0BAB81F2300F01F02C0F3451110B5BD
:10408000C0F3C420C0EB0020C1EB01213F24B0FBF2
:10409000F3F0B1FBF4F1C2EB0222B2FBF3F200EB5E
:1040A000012000EB024010BD10B500F0CBF800F08D
:1040B0009DF8044600F011F8042000F0E5F840F601
:1040C000FF72002113460846FFF7A4FF002000F00E
:1040D000DBF800F090F8204610BD7047FFF7FDBDFB
:1040E0002DE9FF4F83B09946DDE911A817460D462B
:1040F0000024DDF840B0149E3CE05846BBF1040FAC
:104100001ED005DC012809D0BBF1020F30D10EE032
:1041100008281ED0BBF1100F2AD122E0CDE900768D
:1041200061194246139B039801F076FA20E0CDE92D
:10413000007661194246139B039801F0C9FA17E013
:10414000CDE9007661194246139B039801F04EFBBE
:104150000EE061193B4642460096039801F0D4FBFD
:1041600006E061193B46424600960398FDF7C6F803
:10417000D044641C4C45C0DB07B0BDE8F08F0000A4
:104180002DE9F0410C4E04461546307B0F46C00722
:1041900005D10EE03946204600F033F8641CAC42ED
:1041A000F8DDBDE8F08172883946204600F024F839
:1041B000641CAC42F7DDF4E7981C002038B5054CD0
:1041C0009BB292B2648889B280B20094FFF7CAFEB3
:1041D00038BD0000981C0020002101804180802112
:1041E0008180A021C1807047FFF744BF10B504F063
:1041F000A1FD002010BD704792B289B280B2FFF7D6
:10420000A5BE4FF6FF72FFF7F7BF0000064910B5D5
:104210004A6B824206D04863FFF75DFDBDE810405F
:1042200000F004B810BD0000981C002010B5044632
:10423000002001F0C3FB024921F8104010BD00002E
:10424000981C00200148FFF7C7BF00009C1C0020FD
:10425000064910B50A6B824206D00863FFF73BFDA2
:10426000BDE8104000F004B810BD0000981C00200C
:1042700010B50446012001F0A1FB024921F81040CD
:1042800010BD0000981C0020064910B50246087BAE
:1042900080EA02035B0703D50B884C880C804B80B7
:1042A0000A7310BD981C00202DE9F04702FB03F4AF
:1042B0000B4402444FF6FF755B1E521E05EA44058F
:1042C0009BB292B2089EFFF7E5FCDFF860904FF4D6
:1042D0008078002241464846FEF76FF9154C144994
:1042E0001020C4E9001000208022C4E902022061ED
:1042F0006061A061E061086820F00100086020466C
:10430000FEF70AF80C4F2A463146BC64384667620D
:10431000FEF7E0FEB86C006841680029FCD1414618
:104320004846BDE8F0470122FEF747B900080140C2
:104330005800024070040020C003002010B504465D
:10434000000A00F019F8E0B2BDE8104000F014B81F
:1043500070B5084C0546002202212046FEF72DF9D3
:10436000284600F009F82046BDE8704001220221ED
:10437000FEF723B9000C014031B50B4D4FF48074AA
:10438000002221462846FEF718F9642301226946D7
:104390000648FEF7FDFC0122521EFDD201222146F5
:1043A0002846FEF70AF938BD00080140C003002086
:1043B0002DE9FC41074615460E4600246846009349
:1043C00005F022FB60F30704C4F3C000307020093D
:1043D000387001A9009800F09FF80099019A0144F3
:1043E00000910A44511A022904DB684605F012FBC9
:1043F00028800120BDE8FC812DE9FC41074600240E
:104400000E4625466846009205F0FEFA0146204613
:1044100061F307000009022819D101A9009800F0F2
:104420007BF8009905460844019900900144081A58
:1044300002280CDB684605F0E7FA60F3070404F095
:1044400001003870684605F0DFFA30700125284613
:10445000BDE8FC812DE9FC5F8046DDE90EA000246B
:10446000CDE90004994617460E462546DDF834B0DE
:10447000684605F0C9FA60F30704200903282CD127
:10448000C4F3C00188F80010C4F34100306004F0A8
:104490000100387001A9009800F03EF80099054627
:1044A0000844019900904418224669460C9805F08A
:1044B000BAFA90B10098201A0FD43068002804DDB1
:1044C000684605F0A7FAA9F800000098211ACAF872
:1044D000001000990125CBF800102846BDE8FC9F8C
:1044E000F8B5012400250E4607460D606D1C042D0D
:1044F0000FDC01216846B84701280AD19DF8000069
:10450000316800F07F0202FB0411E4013160000613
:10451000ECD42846F8BD0000024A10600248FFF7BC
:10452000DFBF0000400000203175000810B50446D0
:104530000020CA1701EB526323F07F02891ACAB226
:10454000D911002901DD42F08002225400F101005E
:10455000EFDC10BD401C802801DA401C7047B0F52C
:10456000804F01DA801C70470349884201DAC01C81
:104570007047001D70470000FFFF1F002DE9F84342
:1045800006460090884614460025104600F082F842
:104590008146FFF7DFFF404502DDA81EBDE8F88336
:1045A0002F46394667F307016846103105F05CFC79
:1045B00049460098FFF7BAFF009908440090207A16
:1045C00004281DD02FA1684605F03AFC0321684657
:1045D00005F04AFCA07E67F3070560F34105E07E25
:1045E00008B145F00405680707D594F83D0060F36D
:1045F000C40594F83C0060F34515206C40B905E013
:1046000022A1684605F01CFC0421E0E7A06C08B17B
:1046100045F08005E06C08B9606D08B145F04005D3
:104620002946684605F020FC218B684605F022FCEF
:1046300004F10C0168460EC905F02BFCE07E68B160
:104640002434684694E80E00243C05F022FC303403
:10465000684694E80E00303C05F01BFC280605D5A2
:1046600004F1400168460EC905F013FC680605D543
:104670004C34684694E80E0005F00BFC0098801B53
:104680008CE700004D514973647000004D51545443
:104690000000000070B50446007A0025032802D00F
:1046A000042802D002E00C2500E00A2504F10C00E9
:1046B00007C800F098F80544E07EAD1C78B12434BA
:1046C00094E80700243C00F08EF83034064694E865
:1046D0000700303C00F087F8304405442D1D206C65
:1046E00008B9A16C29B1D4E9111200F07CF8054495
:1046F000AD1CE06C08B9616D29B1D4E9141200F069
:1047000072F80544AD1C284670BD0C2200F052B86A
:104710002DE9FC5F1C46129ECDE90060DDF838B043
:104720009046DDF830A0DDE90F238946054659465D
:10473000204600F030F80746FFF70CFF484503DD40
:104740006FF00100BDE8FC9F302168F3C30164F302
:1047500042016AF3000101A805F086FB3946019881
:10476000FFF7E4FE019908440190DDE90F23594663
:1047700001A805F08EFB002C03DD01A80D9905F0C2
:1047800079FB324611990198FBF7FEFC0198304401
:104790000190401BD6E770B50E46114604461A46F6
:1047A0003046049D00F01FF82844801C002C00DDDA
:1047B000801C70BD38B5002304460090022901DA40
:1047C000981E38BD194663F3070162F30711684666
:1047D00005F04AFB00210098FFF7A8FE009901446C
:1047E000081B009138BD0200084602D01046FBF7B6
:1047F00019BD7047094808B5416941F0010141619F
:104800004069002200F00100009011460F20FDF7E2
:1048100045FFBDE808400F20FDF732BF0010024001
:104820002DE9F04186B000243548009401940294AB
:104830000394816941F010018161816901F01001E7
:104840000491816941F020018161816901F02001B9
:104850000491816941F004018161816901F00401E1
:104860000491816941F0080181618069DFF89480D9
:1048700000F00800049001224FF4C8514046FDF7B3
:104880009CFE214F012244F201013846FDF795FEBE
:10489000012241F202013846FDF78FFE0125CDE9E4
:1048A0000054694640460295FDF79CFD4FF4604078
:1048B0008DE8310069461548FDF794FD280203266E
:1048C000CDE90005CDE9024669464046FDF78AFD7F
:1048D00045F20300CDE90005CDE9024669463846B8
:1048E000FDF780FDF002CDE900050220CDE9024090
:1048F00069464046FDF776FD06B0BDE8F081000050
:104900000010024000080140000C0140001001406E
:10491000104810B50E4901604FF4827141600021CA
:1049200002228160C0E903120122426152028261C7
:104930000822C0E90721416281620A21C162FEF7B3
:104940005EF9002803D0BDE81040FCF71BBD10BD88
:1049500000380040C0030020104810B50E49016027
:104960004FF482714160002102228160C0E903128C
:1049700001224261520282613822C0E9072141626C
:1049800081620A21C162FEF73AF9002803D0BDE82E
:104990001040FCF7F7BC10BD0030014018040020A7
:1049A00010B586B000241748009401940294039433
:1049B00004941349059401604721C0E9011440F2B1
:1049C000E731C0E903148461FEF73CFC08B1FCF751
:1049D000D9FC4FF48050009069460A48FEF7AAFCC3
:1049E00008B1FCF7CFFC049404A906480594FEF72F
:1049F000F5FB002801D0FCF7C5FC06B010BD000097
:104A000000040040B40400200C4810B50A490160BD
:104A10004FF4E1314160002181600C22C160C0E9A6
:104A200004128161C161FEF797FE002803D0BDE842
:104A30001040FCF7A7BC10BD00380140FC0400206A
:104A40000C4810B50A4901604FF4E1314160002182
:104A500081600C22C160C0E904128161C161FEF76E
:104A60007BFE002803D0BDE81040FCF78BBC10BDD6
:104A7000004400403C0500200C4810B50A49016084
:104A80004FF4E1314160002181600C22C160C0E936
:104A900004128161C161FEF75FFE002803D0BDE80A
:104AA0001040FCF76FBC10BD004800407C050020A2
:104AB000FEE770471CB510A0D0E90010CDE900104A
:104AC000102000F039F905226946302000F0EEF898
:104AD00005226946102000F087F8002069460A5C2C
:104AE000A52A03D1401CC0B20528F8D3052801D05F
:104AF00001201CBD00201CBDA5A5A5A5A50000008A
:104B000070B51E4886B0816941F0080181618169F4
:104B100001F008010491816941F00401816180691B
:104B2000012400F0040004904FF40040CDE900049B
:104B3000134E032569463046CDE90245FDF752FC88
:104B40004020CDE9000469460E48CDE90245FDF755
:104B500049FC10200025CDE9000569463046FDF7E7
:104B600041FCFFF7F9FE00F08BF80748C0F8BC5194
:104B70000648C0F8984106B070BD00000010024021
:104B800000080140000C0140000021420080214249
:104B900010B5134C0020C4F8BC01052211492A208D
:104BA00004F5DE7400F082F80121212000F09CF869
:104BB0000121222000F098F84021252000F094F8EF
:104BC0000521312000F090F82721262000F08CF8F4
:104BD0000F21202000F088F80120206010BD000087
:104BE00000002142E53401082DE9F0410C4F0E464A
:104BF00000211546C7F8981100F08EF88046002471
:104C000005E0FF2000F088F83055641CE4B2AC42A7
:104C1000F7D30120C7F898014046BDE8F0810000B5
:104C20000080214210B5074C0021C4F8981104F50A
:104C3000CC7400F071F8FF2000F06EF801212160C3
:104C400010BD00000080214270B50546102000F024
:104C500073F80720FFF7E6FF04460146272000F01F
:104C600043F860060AD5052229466120FFF7BCFFFC
:104C7000FF21E22000F038F8002070BD012070BD57
:104C800010B5094C2068016821F040010160002046
:104C9000206160612046FDF7B2FF2068016841F0A5
:104CA0004001016010BD0000180400202DE9F04112
:104CB0000C4F0D4600211646C7F8981100F02CF84D
:104CC0008046002405E015F8010B00F025F8641C6F
:104CD000E4B2B442F7D30120C7F898014046BDE8DA
:104CE000F08100000080214270B50D46084C01465D
:104CF0000020C4F89801084604F5CC7400F00CF8C4
:104D00000646284600F008F801202060304670BDB5
:104D1000008021427047000001B582B04FF47A70E4
:104D20000090012301AA02A90248FEF7E6F89DF8C7
:104D300004000EBD180400200B4A10B511680B6862
:104D400023F040030B6011680B684FF6C7742340D3
:104D50000B6011680B6803430B601068016841F039
:104D60004001016010BD00001804002010B5406A29
:104D700001684A6822F003024A60416D41F0100167
:104D80004165012180F85110FDF738FF10BD10B5C5
:104D9000406AFEF70CFA10BD38B50546446AFDF7C7
:104DA00011FC024628680068800623D42068416808
:104DB00021F0200141602068416821F0020141603A
:104DC0006421204600F01AF818B1606D40F0200010
:104DD0006065A068002118B92068C26880680090EA
:104DE000E186012084F85100606D18B12046FDF77E
:104DF00005FF38BD2046FEF7D9F938BD38B50B465A
:104E0000009204460022802100F008F8002804D017
:104E1000606D40F020006065032038BD2DE9F84347
:104E20001E46914688460446089DFDF7CBFB401B75
:104E3000351AFDF7C7FB074625480068C0F3CB309D
:104E4000684338E0701C37D0FDF7BCFBC01BA8429C
:104E500003D215B1009860B32CE02068416821F0BE
:104E6000E00141606068B0F5827F0BD1A068B0F5C9
:104E7000004F02D0B0F5806F04D12068016821F0A6
:104E800040010160A06AB0F5005F09D120680168A7
:104E900021F4005101602068016841F40051016073
:104EA000012084F85100002084F850000320BDE860
:104EB000F8830025401E00902068816838EA0100D0
:104EC00004D000204845BDD10020F0E70120F9E7DB
:104ED000280000207047000010B5FDF779FB02485C
:104EE00000680249086010BD240000207400002002
:104EF00030B58FB028216846FBF76DF914210AA858
:104F0000FBF769F901210804CDE90010002402949F
:104F100002250491CDE907504FF4E010099068464E
:104F2000FDF7E0FC0F20CDE90A056802CDE90C4051
:104F300002210AA80E94FDF7E3FB0FB030BD7047C5
:104F40000148FEF763BA0000B4040020F0B502681F
:104F5000164C174D174E4FF08047A04205D0B8426F
:104F600003D0A84201D0B04203D122F070034A68B6
:104F70001A43A04205D0B84203D0A84201D0B042A3
:104F800003D122F44073CA681A434B6922F08002AD
:104F90001A4302608A68C2620A688262A04201D132
:104FA0000969016301214161F0BD0000002C01404D
:104FB000000400400008004010B5846842EA032263
:104FC00024F47F440A432243826010BD826822F0A9
:104FD00070020A4342F007018160704710B5046A0D
:104FE000036A23F001030362836923F0F00343EAB9
:104FF000021324F00A020A438361026210BD10B555
:10500000036A23F0100303628469036A24F4704482
:1050100044EA023223F0A00343EA011182610162F3
:1050200010BD10B5406A0021C185C184FEF7E5FAC4
:1050300010BD0168CA6822F49072CA6001684A69AA
:1050400022F001024A61202180F83A10704710B521
:1050500090F83A10222901D0022010BD81684FF447
:105060008053994201D1026922B1826A99421BD0D0
:1050700049B10AE00268816A5268C2F308020A80F4
:10508000816A891C08E0016971B10168496801F011
:105090007F011170816A491C8162C18D491E09041A
:1050A000090CC18503D016E001684968F1E7016881
:1050B000CA6822F02002CA600168CA6822F48072BD
:1050C000CA6001684A6922F001024A61202180F821
:1050D0003A10FEF775FC002010BD000070B50446C4
:1050E00000680169E26821F4405111430161A1683F
:1050F00020690143606901432068C26841F20C6382
:105100009A430A43C26020684169A26921F4407150
:10511000114341611E492068884202D1FDF79CFB82
:1051200001E0FDF789FB00EBC00101EB00116068B5
:1051300064228000B1FBF0F3B3FBF2F36FF01806CA
:105140007343B1FBF0F5B1FBF0F605EB83053223B9
:1051500003EB0515B5FBF2F5B6FBF2F605F0F0052D
:1051600005EB0615B1FBF0F6B1FBF0F0B0FBF2F089
:105170006FF01801484306EB800003EB0010B0FB12
:10518000F2F0216800F00F002844886070BD000034
:10519000003801402DE9F0411E4617468846044676
:1051A000069D1CE0681C1AD025B1FDF70BFA801B88
:1051B000A84214D92068C16821F4D071C160206868
:1051C000416921F001014161202084F8390084F80F
:1051D0003A00002084F838000320BDE8F081206800
:1051E000016838EA010004D00020B842DAD000207B
:1051F000F3E70120F9E700000148FEF7FFB90000DE
:10520000FC04002008B50A48FEF7F8F908480068D1
:105210000068C04380060AD401231A466946044840
:10522000FEF76EFB9DF80010024802F0ACFA08BDD4
:105230003C050020BC0A002008B50A48FEF7DEF94C
:10524000084800680068C04380060AD401231A4653
:1052500069460448FEF754FB9DF80010024802F02E
:1052600092FA08BD7C050020BC0A0020FEE7000081
:1052700030B50B4D2C680C2C10DA0A4B210009D0EC
:1052800003EB410232F9022C824203DB23F81120A6
:10529000491EF5D123F81100641C2C6030BD0000BC
:1052A00064000020801C00202DE9F04180461D464E
:1052B00014460E461046069FFBF764FC02D13046AA
:1052C000BDE8F08131462046FBF76FF904462946D8
:1052D0003846FBF76AF92146FBF79FF90446314649
:1052E0004046FBF762F92146FBF765F92946BDE820
:1052F000F041FBF708B90120704710B54943541A33
:105300000368914202D30021016010BD5B1C03FBC6
:1053100003F1A142FAD35B1E036010BD2DE9F041F9
:105320000746134815461C460E4650F82500FBF765
:105330005AFB3946FBF73FF94FF07C51FBF7E3F896
:10534000FBF7C0FB02F00CFDFBF700FC3CB1FBF7E8
:105350006DFB2A463146BDE8F041FCF7E4BCFBF7A3
:1053600065FB2A463146BDE8F041FCF794BC0000DD
:10537000BC520108F7B5114D0C46286920B1114601
:10538000FCF7F4FD002806D0A869006920B1826806
:10539000214600989047FEBD094E0BE06846FCF799
:1053A0001DFE0746A869016838468847316809B17B
:1053B00038468847641EF1D5FEBD0000981C0020C9
:1053C0006C0000202DE9F04F05468DB08D489046C9
:1053D0000C46007DDDF858B0DDF86490FBF719FB52
:1053E0000022894BFBF757F94FF0FF32FBF7DBFA4E
:1053F00006460F464046FBF7FBFA8A468046324691
:105400003B46FBF7E9F9FBF7A1FB019032463B462F
:1054100040465146FBF73FF9FBF798FB0090584692
:10542000FBF7E6FA794EDFF8E88132464346FBF7B0
:10543000D9F9DFF8E0A100225346FBF745FAFBF764
:1054400085FB07461798FBF7D3FA32464346FBF72E
:10545000C9F900225346FBF737FAFBF777FB0646FC
:105460003846FBF72FFB0746029104F08BFCFBF755
:105470006DFB82463046FBF725FB8B46064604F063
:1054800081FCFBF763FB80463846029902F082F903
:10549000FBF75CFB07463046594602F07BF9FBF709
:1054A00055FB019906460846FBF785F8FBF7D7FA46
:1054B0000A9000990846FBF77EF8FBF7D0FA0990AE
:1054C00051460198FBF777F8039051460098FBF797
:1054D00072F8824641460198FBF76DF883464146D3
:1054E0000098FBF768F8089039460198FBF763F8D5
:1054F0000B9039460098FBF75EF802903146019810
:10550000FBF759F8079031460098FBF754F80490E0
:105510000398FBF7D7FA02F0BFF8FBF7B4FA80461E
:105520000898FBF7CFFA02F01BFCFBF7ACFA354901
:105530000969E9B1B9F1010F0BD1B1F90620121BCC
:10554000824200DA1046B1F90220121B424500DD0A
:105550009046B9F1FF3F0BD1B1F90620121B42452D
:1055600000DA9046B1F90210091B814200DD0846BD
:1055700000210591064606913EE0314605A80A9AAB
:10558000FFF7BBFE314606A8099AFFF7B6FE304684
:10559000FBF720FA51460190FBF7F4FA0BD2DDE954
:1055A0000101009152460B9B0399FFF77DFEFBF72B
:1055B0003DFA074600E0069F59460198FBF7ECFAD2
:1055C0000AD204990091DDE9073201985946FFF7A4
:1055D0006BFEFBF72BFA00E005981899002904DD13
:1055E00009FB06417A19284403E02A1A09FB0641FF
:1055F000E81BFEF771FC761E4645BEDA0DB0BDE82D
:10560000F08F0000981C00200000F83F4AD8124D8F
:10561000FB210940008066402DE9F05F1C468B4667
:10562000DDE90A7106192948B1F80090B1F8028045
:10563000007B154610F003004FF0800113D00128C5
:105640002DD0022824D18946297829FA04F0014274
:1056500004D0424659463046FEF7CEFD641C761C07
:10566000082C17D018E08A4629782AFA04F001425B
:1056700001D0424600E04A463046761C5946FEF7C5
:10568000BBFD641C082C01D100246D1C7F1EEBD1D6
:10569000BDE8F09F00246D1C7F1ED5D1F8E7884639
:1056A0004FF6FF79297828FA04F0014204D04A46DF
:1056B00059463046FEF7A0FD641C761C082C01D12B
:1056C00000246D1C7F1EEDD1E2E70000981C002035
:1056D0002DE9F05F1C460519DDE90A8942488B4631
:1056E0001778007B164610F003004FF0C0011AD067
:1056F000022837D15FEA09005AD08A46C4F1030074
:105700004100C1F106022AFA02F03840C84005D033
:1057100039F8102059462846FEF76EFD641C6D1CB2
:10572000042C3CD03EE05FEA09001DD08A46C4F15B
:1057300003004000C0F106022AFA02F13940C140DC
:10574000284639F811206D1C5946FEF755FD641C9A
:10575000042C02D116F8017F0024A8F101005FEAB1
:105760000008E4D1BDE8F09F8946C4F10300400081
:10577000C0F1060129FA01F23A40C24028466D1CE8
:105780005946FEF739FD641C042C02D116F8017F3E
:105790000024A8F101005FEA0008E6D1E2E716F86C
:1057A000017F0024A8F101005FEA0008A6D1D9E733
:1057B0008946C4F103004000C0F1060129FA01F254
:1057C0003A40C24003D059462846FEF715FD641CF6
:1057D0006D1C042C02D116F8017F0024A8F10100F1
:1057E0005FEA0008E5D1BDE7981C00202DE9F05FD5
:1057F0001C460519DDE90A8942488B461778007B6B
:10580000164610F003004FF0F0011AD0022837D1ED
:105810005FEA09005AD08A46C4F101008100C1F153
:1058200004022AFA02F03840C84005D039F81020A6
:1058300059462846FEF7E0FC641C6D1C022C3CD047
:105840003EE05FEA09001DD08A46C4F101008000F5
:10585000C0F104022AFA02F13940C140284639F861
:1058600011206D1C5946FEF7C7FC641C022C02D1A6
:1058700016F8017F0024A8F101005FEA0008E4D1D6
:10588000BDE8F09F8946C4F101008000C0F1040129
:1058900029FA01F23A40C24028466D1C5946FEF7EB
:1058A000ABFC641C022C02D116F8017F0024A8F185
:1058B00001005FEA0008E6D1E2E716F8017F002464
:1058C000A8F101005FEA0008A6D1D9E78946C4F132
:1058D00001008000C0F1040129FA01F23A40C240FF
:1058E00003D059462846FEF787FC641C6D1C022C29
:1058F00002D116F8017F0024A8F101005FEA000838
:10590000E5D1BDE7981C00202DE9F041064621486D
:10591000069F1C46007B1546884610F0030003D006
:1059200002280FD137BB31E057B915E0287841463E
:1059300037F810203046FEF75FFC641E6D1C761CA5
:10594000002CF3DCBDE8F0812A7841463046FEF7B2
:1059500053FC641E6D1C761C002CF5DCF2E72878E5
:1059600028B137F8102041463046FEF745FC641E4A
:105970006D1C761C002CF2DCE4E72A781AB1414653
:105980003046FEF739FC641E6D1C761C002CF4DCDE
:10599000D8E70000981C0020034A527D002A01D15C
:1059A000FBF766BE70470000981C002001700120C4
:1059B0007047007870470120704700000249097B5A
:1059C000490700D5401E7047981C002001494884B3
:1059D00000207047981C00200149888400207047EF
:1059E000981C00201C49897D012906D002290ED06F
:1059F000032918D0042914D11EE0801DC11700EB23
:105A0000117121F00F01401A0C2808DB09E0C117C1
:105A100000EB917121F00301401A022801DA012004
:105A2000704700207047142190FBF1F201FB120037
:105A30000C28F4DB10380BE0182190FBF1F201FB8D
:105A400012000C28EBDBA0F110010229E7D3143877
:105A50000228E6D2E3E70000981C00200FB4054BB3
:105A600010B503A9044A029800F0CEFC10BC5DF802
:105A700014FB00003D7E0008800000200FB4084B9E
:105A800010B504A902AA039800F0BEFC044602A9BE
:105A9000002001F03CF8204610BC5DF814FB00002B
:105AA0000F6B0008490050EAC12018BF04204A0DBE
:105AB00018BF40F0010040F2FF72B2EB515F08BF27
:105AC00040F00200012808BF052070470907090EB1
:105AD000002804DB00F1E02080F80014704700F09B
